{
  "_format": "hh-sol-artifact-1",
  "contractName": "Bridge",
  "sourceName": "contracts/Bridge.sol",
  "abi": [
    {
      "inputs": [
        {
          "internalType": "address",
          "name": "potatoNFTAddress",
          "type": "address"
        },
        {
          "internalType": "address",
          "name": "potatoTokenAddress",
          "type": "address"
        }
      ],
      "stateMutability": "nonpayable",
      "type": "constructor"
    },
    {
      "anonymous": false,
      "inputs": [
        {
          "indexed": true,
          "internalType": "address",
          "name": "previousOwner",
          "type": "address"
        },
        {
          "indexed": true,
          "internalType": "address",
          "name": "newOwner",
          "type": "address"
        }
      ],
      "name": "OwnershipTransferred",
      "type": "event"
    },
    {
      "inputs": [],
      "name": "owner",
      "outputs": [
        {
          "internalType": "address",
          "name": "",
          "type": "address"
        }
      ],
      "stateMutability": "view",
      "type": "function"
    },
    {
      "inputs": [],
      "name": "potatoNFT",
      "outputs": [
        {
          "internalType": "contract IVirtual",
          "name": "",
          "type": "address"
        }
      ],
      "stateMutability": "view",
      "type": "function"
    },
    {
      "inputs": [],
      "name": "potatoToken",
      "outputs": [
        {
          "internalType": "contract IERC20",
          "name": "",
          "type": "address"
        }
      ],
      "stateMutability": "view",
      "type": "function"
    },
    {
      "inputs": [],
      "name": "renounceOwnership",
      "outputs": [],
      "stateMutability": "nonpayable",
      "type": "function"
    },
    {
      "inputs": [
        {
          "internalType": "address",
          "name": "_to",
          "type": "address"
        },
        {
          "internalType": "uint256",
          "name": "_amount",
          "type": "uint256"
        }
      ],
      "name": "retrieveScrape",
      "outputs": [],
      "stateMutability": "nonpayable",
      "type": "function"
    },
    {
      "inputs": [
        {
          "internalType": "uint256",
          "name": "_amount",
          "type": "uint256"
        }
      ],
      "name": "swapNFTtoToken",
      "outputs": [],
      "stateMutability": "payable",
      "type": "function"
    },
    {
      "inputs": [
        {
          "internalType": "uint256",
          "name": "amount",
          "type": "uint256"
        }
      ],
      "name": "swapTokentoNFT",
      "outputs": [],
      "stateMutability": "payable",
      "type": "function"
    },
    {
      "inputs": [
        {
          "internalType": "address",
          "name": "newOwner",
          "type": "address"
        }
      ],
      "name": "transferOwnership",
      "outputs": [],
      "stateMutability": "nonpayable",
      "type": "function"
    },
    {
      "stateMutability": "payable",
      "type": "receive"
    }
  ],
  "bytecode": "0x60806040523480156200001157600080fd5b506040516200128b3803806200128b833981810160405281019062000037919062000217565b620000576200004b620000e160201b60201c565b620000e960201b60201c565b81600160006101000a81548173ffffffffffffffffffffffffffffffffffffffff021916908373ffffffffffffffffffffffffffffffffffffffff16021790555080600260006101000a81548173ffffffffffffffffffffffffffffffffffffffff021916908373ffffffffffffffffffffffffffffffffffffffff16021790555050506200025e565b600033905090565b60008060009054906101000a900473ffffffffffffffffffffffffffffffffffffffff169050816000806101000a81548173ffffffffffffffffffffffffffffffffffffffff021916908373ffffffffffffffffffffffffffffffffffffffff1602179055508173ffffffffffffffffffffffffffffffffffffffff168173ffffffffffffffffffffffffffffffffffffffff167f8be0079c531659141344cd1fd0a4f28419497f9722a3daafe3b4186f6b6457e060405160405180910390a35050565b600080fd5b600073ffffffffffffffffffffffffffffffffffffffff82169050919050565b6000620001df82620001b2565b9050919050565b620001f181620001d2565b8114620001fd57600080fd5b50565b6000815190506200021181620001e6565b92915050565b60008060408385031215620002315762000230620001ad565b5b6000620002418582860162000200565b9250506020620002548582860162000200565b9150509250929050565b61101d806200026e6000396000f3fe60806040526004361061007f5760003560e01c80638da5cb5b1161004e5780638da5cb5b14610112578063afcdf0651461013d578063e9eb9d3c14610159578063f2fde38b1461018457610086565b80630bf7e7d61461008b57806310997316146100b4578063715018a6146100df5780637cb312fb146100f657610086565b3661008657005b600080fd5b34801561009757600080fd5b506100b260048036038101906100ad9190610a47565b6101ad565b005b3480156100c057600080fd5b506100c9610200565b6040516100d69190610ae6565b60405180910390f35b3480156100eb57600080fd5b506100f4610226565b005b610110600480360381019061010b9190610b01565b61023a565b005b34801561011e57600080fd5b50610127610527565b6040516101349190610b3d565b60405180910390f35b61015760048036038101906101529190610b01565b610550565b005b34801561016557600080fd5b5061016e6107bb565b60405161017b9190610b79565b60405180910390f35b34801561019057600080fd5b506101ab60048036038101906101a69190610b94565b6107e1565b005b6101b5610864565b8173ffffffffffffffffffffffffffffffffffffffff166108fc829081150290604051600060405180830381858888f193505050501580156101fb573d6000803e3d6000fd5b505050565b600160009054906101000a900473ffffffffffffffffffffffffffffffffffffffff1681565b61022e610864565b61023860006108e2565b565b600160009054906101000a900473ffffffffffffffffffffffffffffffffffffffff1673ffffffffffffffffffffffffffffffffffffffff1663beabacc83330846040518463ffffffff1660e01b815260040161029993929190610bd0565b600060405180830381600087803b1580156102b357600080fd5b505af11580156102c7573d6000803e3d6000fd5b50505050670de0b6b3a7640000816102df9190610c36565b600260009054906101000a900473ffffffffffffffffffffffffffffffffffffffff1673ffffffffffffffffffffffffffffffffffffffff166370a08231306040518263ffffffff1660e01b815260040161033a9190610b3d565b602060405180830381865afa158015610357573d6000803e3d6000fd5b505050506040513d601f19601f8201168201806040525081019061037b9190610c8d565b10156103bc576040517f08c379a00000000000000000000000000000000000000000000000000000000081526004016103b390610d3d565b60405180910390fd5b600260009054906101000a900473ffffffffffffffffffffffffffffffffffffffff1673ffffffffffffffffffffffffffffffffffffffff1663095ea7b333670de0b6b3a76400008461040f9190610c36565b6040518363ffffffff1660e01b815260040161042c929190610d5d565b6020604051808303816000875af115801561044b573d6000803e3d6000fd5b505050506040513d601f19601f8201168201806040525081019061046f9190610dbe565b50600260009054906101000a900473ffffffffffffffffffffffffffffffffffffffff1673ffffffffffffffffffffffffffffffffffffffff1663a9059cbb33670de0b6b3a7640000846104c39190610c36565b6040518363ffffffff1660e01b81526004016104e0929190610d5d565b6020604051808303816000875af11580156104ff573d6000803e3d6000fd5b505050506040513d601f19601f820116820180604052508101906105239190610dbe565b5050565b60008060009054906101000a900473ffffffffffffffffffffffffffffffffffffffff16905090565b60008111610593576040517f08c379a000000000000000000000000000000000000000000000000000000000815260040161058a90610e37565b60405180910390fd5b600260009054906101000a900473ffffffffffffffffffffffffffffffffffffffff1673ffffffffffffffffffffffffffffffffffffffff166323b872dd3330670de0b6b3a7640000856105e79190610c36565b6040518463ffffffff1660e01b815260040161060593929190610bd0565b6020604051808303816000875af1158015610624573d6000803e3d6000fd5b505050506040513d601f19601f820116820180604052508101906106489190610dbe565b5080600160009054906101000a900473ffffffffffffffffffffffffffffffffffffffff1673ffffffffffffffffffffffffffffffffffffffff166370a08231306040518263ffffffff1660e01b81526004016106a59190610b3d565b602060405180830381865afa1580156106c2573d6000803e3d6000fd5b505050506040513d601f19601f820116820180604052508101906106e69190610c8d565b1015610727576040517f08c379a000000000000000000000000000000000000000000000000000000000815260040161071e90610ec9565b60405180910390fd5b600160009054906101000a900473ffffffffffffffffffffffffffffffffffffffff1673ffffffffffffffffffffffffffffffffffffffff1663beabacc83033846040518463ffffffff1660e01b815260040161078693929190610bd0565b600060405180830381600087803b1580156107a057600080fd5b505af11580156107b4573d6000803e3d6000fd5b5050505050565b600260009054906101000a900473ffffffffffffffffffffffffffffffffffffffff1681565b6107e9610864565b600073ffffffffffffffffffffffffffffffffffffffff168173ffffffffffffffffffffffffffffffffffffffff1603610858576040517f08c379a000000000000000000000000000000000000000000000000000000000815260040161084f90610f5b565b60405180910390fd5b610861816108e2565b50565b61086c6109a6565b73ffffffffffffffffffffffffffffffffffffffff1661088a610527565b73ffffffffffffffffffffffffffffffffffffffff16146108e0576040517f08c379a00000000000000000000000000000000000000000000000000000000081526004016108d790610fc7565b60405180910390fd5b565b60008060009054906101000a900473ffffffffffffffffffffffffffffffffffffffff169050816000806101000a81548173ffffffffffffffffffffffffffffffffffffffff021916908373ffffffffffffffffffffffffffffffffffffffff1602179055508173ffffffffffffffffffffffffffffffffffffffff168173ffffffffffffffffffffffffffffffffffffffff167f8be0079c531659141344cd1fd0a4f28419497f9722a3daafe3b4186f6b6457e060405160405180910390a35050565b600033905090565b600080fd5b600073ffffffffffffffffffffffffffffffffffffffff82169050919050565b60006109de826109b3565b9050919050565b6109ee816109d3565b81146109f957600080fd5b50565b600081359050610a0b816109e5565b92915050565b6000819050919050565b610a2481610a11565b8114610a2f57600080fd5b50565b600081359050610a4181610a1b565b92915050565b60008060408385031215610a5e57610a5d6109ae565b5b6000610a6c858286016109fc565b9250506020610a7d85828601610a32565b9150509250929050565b6000819050919050565b6000610aac610aa7610aa2846109b3565b610a87565b6109b3565b9050919050565b6000610abe82610a91565b9050919050565b6000610ad082610ab3565b9050919050565b610ae081610ac5565b82525050565b6000602082019050610afb6000830184610ad7565b92915050565b600060208284031215610b1757610b166109ae565b5b6000610b2584828501610a32565b91505092915050565b610b37816109d3565b82525050565b6000602082019050610b526000830184610b2e565b92915050565b6000610b6382610ab3565b9050919050565b610b7381610b58565b82525050565b6000602082019050610b8e6000830184610b6a565b92915050565b600060208284031215610baa57610ba96109ae565b5b6000610bb8848285016109fc565b91505092915050565b610bca81610a11565b82525050565b6000606082019050610be56000830186610b2e565b610bf26020830185610b2e565b610bff6040830184610bc1565b949350505050565b7f4e487b7100000000000000000000000000000000000000000000000000000000600052601160045260246000fd5b6000610c4182610a11565b9150610c4c83610a11565b9250828202610c5a81610a11565b91508282048414831517610c7157610c70610c07565b5b5092915050565b600081519050610c8781610a1b565b92915050565b600060208284031215610ca357610ca26109ae565b5b6000610cb184828501610c78565b91505092915050565b600082825260208201905092915050565b7f4e4654746f45524332305472616e736665723a20496e73756666696369656e7460008201527f20546f6b656e2062616c616e6365000000000000000000000000000000000000602082015250565b6000610d27602e83610cba565b9150610d3282610ccb565b604082019050919050565b60006020820190508181036000830152610d5681610d1a565b9050919050565b6000604082019050610d726000830185610b2e565b610d7f6020830184610bc1565b9392505050565b60008115159050919050565b610d9b81610d86565b8114610da657600080fd5b50565b600081519050610db881610d92565b92915050565b600060208284031215610dd457610dd36109ae565b5b6000610de284828501610da9565b91505092915050565b7f4272696467653a20496e76616c696420616d6f756e7400000000000000000000600082015250565b6000610e21601683610cba565b9150610e2c82610deb565b602082019050919050565b60006020820190508181036000830152610e5081610e14565b9050919050565b7f4e4654746f546f6b656e5472616e736665723a20496e73756666696369656e7460008201527f204e465420746f6b656e73000000000000000000000000000000000000000000602082015250565b6000610eb3602b83610cba565b9150610ebe82610e57565b604082019050919050565b60006020820190508181036000830152610ee281610ea6565b9050919050565b7f4f776e61626c653a206e6577206f776e657220697320746865207a65726f206160008201527f6464726573730000000000000000000000000000000000000000000000000000602082015250565b6000610f45602683610cba565b9150610f5082610ee9565b604082019050919050565b60006020820190508181036000830152610f7481610f38565b9050919050565b7f4f776e61626c653a2063616c6c6572206973206e6f7420746865206f776e6572600082015250565b6000610fb1602083610cba565b9150610fbc82610f7b565b602082019050919050565b60006020820190508181036000830152610fe081610fa4565b905091905056fea26469706673582212203f591713fbd1869831d185feedf8381cf6243f485ffd11ce7dc5cc0f4bf14d2464736f6c63430008120033",
  "linkReferences": {},
  "deployedLinkReferences": {}
}