{
  "_format": "hh-sol-artifact-1",
  "contractName": "MrPotatoNFT",
  "sourceName": "contracts/PotatoNFT.sol",
  "abi": [
    {
      "inputs": [
        {
          "internalType": "address",
          "name": "_mrpotato",
          "type": "address"
        },
        {
          "internalType": "address",
          "name": "_treasury",
          "type": "address"
        }
      ],
      "stateMutability": "nonpayable",
      "type": "constructor"
    },
    {
      "anonymous": false,
      "inputs": [
        {
          "indexed": false,
          "internalType": "address",
          "name": "user",
          "type": "address"
        },
        {
          "indexed": false,
          "internalType": "uint256",
          "name": "amount",
          "type": "uint256"
        }
      ],
      "name": "Mint",
      "type": "event"
    },
    {
      "anonymous": false,
      "inputs": [
        {
          "indexed": true,
          "internalType": "address",
          "name": "previousOwner",
          "type": "address"
        },
        {
          "indexed": true,
          "internalType": "address",
          "name": "newOwner",
          "type": "address"
        }
      ],
      "name": "OwnershipTransferred",
      "type": "event"
    },
    {
      "anonymous": false,
      "inputs": [
        {
          "indexed": false,
          "internalType": "address",
          "name": "from",
          "type": "address"
        },
        {
          "indexed": false,
          "internalType": "address",
          "name": "to",
          "type": "address"
        },
        {
          "indexed": false,
          "internalType": "uint256",
          "name": "amount",
          "type": "uint256"
        }
      ],
      "name": "Transfer",
      "type": "event"
    },
    {
      "inputs": [
        {
          "internalType": "address[]",
          "name": "to",
          "type": "address[]"
        },
        {
          "internalType": "uint256",
          "name": "amount",
          "type": "uint256"
        }
      ],
      "name": "airdrop",
      "outputs": [],
      "stateMutability": "nonpayable",
      "type": "function"
    },
    {
      "inputs": [
        {
          "internalType": "address",
          "name": "account",
          "type": "address"
        }
      ],
      "name": "balanceOf",
      "outputs": [
        {
          "internalType": "uint256",
          "name": "",
          "type": "uint256"
        }
      ],
      "stateMutability": "view",
      "type": "function"
    },
    {
      "inputs": [
        {
          "internalType": "address",
          "name": "to",
          "type": "address"
        },
        {
          "internalType": "uint256",
          "name": "amount",
          "type": "uint256"
        },
        {
          "internalType": "uint256",
          "name": "price",
          "type": "uint256"
        }
      ],
      "name": "mint",
      "outputs": [],
      "stateMutability": "nonpayable",
      "type": "function"
    },
    {
      "inputs": [],
      "name": "owner",
      "outputs": [
        {
          "internalType": "address",
          "name": "",
          "type": "address"
        }
      ],
      "stateMutability": "view",
      "type": "function"
    },
    {
      "inputs": [],
      "name": "renounceOwnership",
      "outputs": [],
      "stateMutability": "nonpayable",
      "type": "function"
    },
    {
      "inputs": [],
      "name": "totalSupply",
      "outputs": [
        {
          "internalType": "uint256",
          "name": "",
          "type": "uint256"
        }
      ],
      "stateMutability": "view",
      "type": "function"
    },
    {
      "inputs": [
        {
          "internalType": "address",
          "name": "from",
          "type": "address"
        },
        {
          "internalType": "address",
          "name": "to",
          "type": "address"
        },
        {
          "internalType": "uint256",
          "name": "amount",
          "type": "uint256"
        }
      ],
      "name": "transfer",
      "outputs": [],
      "stateMutability": "nonpayable",
      "type": "function"
    },
    {
      "inputs": [
        {
          "internalType": "address",
          "name": "newOwner",
          "type": "address"
        }
      ],
      "name": "transferOwnership",
      "outputs": [],
      "stateMutability": "nonpayable",
      "type": "function"
    }
  ],
  "bytecode": "0x60806040523480156200001157600080fd5b506040516200123938038062001239833981810160405281019062000037919062000217565b620000576200004b620000e160201b60201c565b620000e960201b60201c565b81600160006101000a81548173ffffffffffffffffffffffffffffffffffffffff021916908373ffffffffffffffffffffffffffffffffffffffff16021790555080600260006101000a81548173ffffffffffffffffffffffffffffffffffffffff021916908373ffffffffffffffffffffffffffffffffffffffff16021790555050506200025e565b600033905090565b60008060009054906101000a900473ffffffffffffffffffffffffffffffffffffffff169050816000806101000a81548173ffffffffffffffffffffffffffffffffffffffff021916908373ffffffffffffffffffffffffffffffffffffffff1602179055508173ffffffffffffffffffffffffffffffffffffffff168173ffffffffffffffffffffffffffffffffffffffff167f8be0079c531659141344cd1fd0a4f28419497f9722a3daafe3b4186f6b6457e060405160405180910390a35050565b600080fd5b600073ffffffffffffffffffffffffffffffffffffffff82169050919050565b6000620001df82620001b2565b9050919050565b620001f181620001d2565b8114620001fd57600080fd5b50565b6000815190506200021181620001e6565b92915050565b60008060408385031215620002315762000230620001ad565b5b6000620002418582860162000200565b9250506020620002548582860162000200565b9150509250929050565b610fcb806200026e6000396000f3fe608060405234801561001057600080fd5b50600436106100885760003560e01c80638da5cb5b1161005b5780638da5cb5b14610101578063beabacc81461011f578063c204642c1461013b578063f2fde38b1461015757610088565b8063156e29f61461008d57806318160ddd146100a957806370a08231146100c7578063715018a6146100f7575b600080fd5b6100a760048036038101906100a291906108bd565b610173565b005b6100b161033b565b6040516100be919061091f565b60405180910390f35b6100e160048036038101906100dc919061093a565b610345565b6040516100ee919061091f565b60405180910390f35b6100ff61038e565b005b6101096103a2565b6040516101169190610976565b60405180910390f35b61013960048036038101906101349190610991565b6103cb565b005b61015560048036038101906101509190610b3d565b610539565b005b610171600480360381019061016c919061093a565b610648565b005b6601f9465b8ab8e3826003546101899190610bc8565b106101c9576040517f08c379a00000000000000000000000000000000000000000000000000000000081526004016101c090610c59565b60405180910390fd5b81600360008282546101db9190610bc8565b9250508190555081600460008573ffffffffffffffffffffffffffffffffffffffff1673ffffffffffffffffffffffffffffffffffffffff16815260200190815260200160002060008282546102319190610bc8565b92505081905550600160009054906101000a900473ffffffffffffffffffffffffffffffffffffffff1673ffffffffffffffffffffffffffffffffffffffff166323b872dd33600260009054906101000a900473ffffffffffffffffffffffffffffffffffffffff16846040518463ffffffff1660e01b81526004016102b993929190610c79565b6020604051808303816000875af11580156102d8573d6000803e3d6000fd5b505050506040513d601f19601f820116820180604052508101906102fc9190610ce8565b507f0f6798a560793a54c3bcfe86a93cde1e73087d944c0ea20544137d4121396885838360405161032e929190610d15565b60405180910390a1505050565b6000600354905090565b6000600460008373ffffffffffffffffffffffffffffffffffffffff1673ffffffffffffffffffffffffffffffffffffffff168152602001908152602001600020549050919050565b6103966106cb565b6103a06000610749565b565b60008060009054906101000a900473ffffffffffffffffffffffffffffffffffffffff16905090565b80600460008573ffffffffffffffffffffffffffffffffffffffff1673ffffffffffffffffffffffffffffffffffffffff16815260200190815260200160002054101561044d576040517f08c379a000000000000000000000000000000000000000000000000000000000815260040161044490610d8a565b60405180910390fd5b80600460008573ffffffffffffffffffffffffffffffffffffffff1673ffffffffffffffffffffffffffffffffffffffff168152602001908152602001600020600082825461049c9190610daa565b9250508190555080600460008473ffffffffffffffffffffffffffffffffffffffff1673ffffffffffffffffffffffffffffffffffffffff16815260200190815260200160002060008282546104f29190610bc8565b925050819055507fddf252ad1be2c89b69c2b068fc378daa952ba7f163c4a11628f55a4df523b3ef83838360405161052c93929190610c79565b60405180910390a1505050565b6601f9465b8ab8e382518261054e9190610dde565b60035461055b9190610bc8565b1061059b576040517f08c379a000000000000000000000000000000000000000000000000000000000815260040161059290610c59565b60405180910390fd5b60005b82518110156106435781600360008282546105b99190610bc8565b9250508190555081600460008584815181106105d8576105d7610e20565b5b602002602001015173ffffffffffffffffffffffffffffffffffffffff1673ffffffffffffffffffffffffffffffffffffffff16815260200190815260200160002060008282546106299190610bc8565b92505081905550808061063b90610e4f565b91505061059e565b505050565b6106506106cb565b600073ffffffffffffffffffffffffffffffffffffffff168173ffffffffffffffffffffffffffffffffffffffff16036106bf576040517f08c379a00000000000000000000000000000000000000000000000000000000081526004016106b690610f09565b60405180910390fd5b6106c881610749565b50565b6106d361080d565b73ffffffffffffffffffffffffffffffffffffffff166106f16103a2565b73ffffffffffffffffffffffffffffffffffffffff1614610747576040517f08c379a000000000000000000000000000000000000000000000000000000000815260040161073e90610f75565b60405180910390fd5b565b60008060009054906101000a900473ffffffffffffffffffffffffffffffffffffffff169050816000806101000a81548173ffffffffffffffffffffffffffffffffffffffff021916908373ffffffffffffffffffffffffffffffffffffffff1602179055508173ffffffffffffffffffffffffffffffffffffffff168173ffffffffffffffffffffffffffffffffffffffff167f8be0079c531659141344cd1fd0a4f28419497f9722a3daafe3b4186f6b6457e060405160405180910390a35050565b600033905090565b6000604051905090565b600080fd5b600080fd5b600073ffffffffffffffffffffffffffffffffffffffff82169050919050565b600061085482610829565b9050919050565b61086481610849565b811461086f57600080fd5b50565b6000813590506108818161085b565b92915050565b6000819050919050565b61089a81610887565b81146108a557600080fd5b50565b6000813590506108b781610891565b92915050565b6000806000606084860312156108d6576108d561081f565b5b60006108e486828701610872565b93505060206108f5868287016108a8565b9250506040610906868287016108a8565b9150509250925092565b61091981610887565b82525050565b60006020820190506109346000830184610910565b92915050565b6000602082840312156109505761094f61081f565b5b600061095e84828501610872565b91505092915050565b61097081610849565b82525050565b600060208201905061098b6000830184610967565b92915050565b6000806000606084860312156109aa576109a961081f565b5b60006109b886828701610872565b93505060206109c986828701610872565b92505060406109da868287016108a8565b9150509250925092565b600080fd5b6000601f19601f8301169050919050565b7f4e487b7100000000000000000000000000000000000000000000000000000000600052604160045260246000fd5b610a32826109e9565b810181811067ffffffffffffffff82111715610a5157610a506109fa565b5b80604052505050565b6000610a64610815565b9050610a708282610a29565b919050565b600067ffffffffffffffff821115610a9057610a8f6109fa565b5b602082029050602081019050919050565b600080fd5b6000610ab9610ab484610a75565b610a5a565b90508083825260208201905060208402830185811115610adc57610adb610aa1565b5b835b81811015610b055780610af18882610872565b845260208401935050602081019050610ade565b5050509392505050565b600082601f830112610b2457610b236109e4565b5b8135610b34848260208601610aa6565b91505092915050565b60008060408385031215610b5457610b5361081f565b5b600083013567ffffffffffffffff811115610b7257610b71610824565b5b610b7e85828601610b0f565b9250506020610b8f858286016108a8565b9150509250929050565b7f4e487b7100000000000000000000000000000000000000000000000000000000600052601160045260246000fd5b6000610bd382610887565b9150610bde83610887565b9250828201905080821115610bf657610bf5610b99565b5b92915050565b600082825260208201905092915050565b7f546f74616c20737570706c792065786365656465640000000000000000000000600082015250565b6000610c43601583610bfc565b9150610c4e82610c0d565b602082019050919050565b60006020820190508181036000830152610c7281610c36565b9050919050565b6000606082019050610c8e6000830186610967565b610c9b6020830185610967565b610ca86040830184610910565b949350505050565b60008115159050919050565b610cc581610cb0565b8114610cd057600080fd5b50565b600081519050610ce281610cbc565b92915050565b600060208284031215610cfe57610cfd61081f565b5b6000610d0c84828501610cd3565b91505092915050565b6000604082019050610d2a6000830185610967565b610d376020830184610910565b9392505050565b7f496e73756666696369656e742062616c616e6365000000000000000000000000600082015250565b6000610d74601483610bfc565b9150610d7f82610d3e565b602082019050919050565b60006020820190508181036000830152610da381610d67565b9050919050565b6000610db582610887565b9150610dc083610887565b9250828203905081811115610dd857610dd7610b99565b5b92915050565b6000610de982610887565b9150610df483610887565b9250828202610e0281610887565b91508282048414831517610e1957610e18610b99565b5b5092915050565b7f4e487b7100000000000000000000000000000000000000000000000000000000600052603260045260246000fd5b6000610e5a82610887565b91507fffffffffffffffffffffffffffffffffffffffffffffffffffffffffffffffff8203610e8c57610e8b610b99565b5b600182019050919050565b7f4f776e61626c653a206e6577206f776e657220697320746865207a65726f206160008201527f6464726573730000000000000000000000000000000000000000000000000000602082015250565b6000610ef3602683610bfc565b9150610efe82610e97565b604082019050919050565b60006020820190508181036000830152610f2281610ee6565b9050919050565b7f4f776e61626c653a2063616c6c6572206973206e6f7420746865206f776e6572600082015250565b6000610f5f602083610bfc565b9150610f6a82610f29565b602082019050919050565b60006020820190508181036000830152610f8e81610f52565b905091905056fea2646970667358221220032b1676e7cfd0cadaab93effef639f64788cafe3a0f44df23c2ca64bb27791e64736f6c63430008120033",
  "linkReferences": {},
  "deployedLinkReferences": {}
}